:10000600EF1FAC0670011E4C600A7D027CEFDCFE21
:04001600DDFC80ECA1
:01001A0022C3
:0B052000D288C289D2A8D2AFD2B82284
:060547001204F60205207B
:0D050600E5606006E4F5607F01227F0022C1
:0D051300E55E6006E4F55E7F01227F0022B8
:03055300AF5D2277
:03055600AF5C2275
:030003000201A057
:1001A000C0E0C0F0C083C082C0D075D000C000C025
:1001B00001C002C003C004C005C006C007E55970F5
:1001C0000CFFFE12052B7F0112054D8049E5596495
:1001D0000170491205368E5A8F5BE4FFFE12052B23
:1001E000D3E55B94A6E55A942E4010E55B948EE52A
:1001F0005A943250067559020202D3D3E55B948CAF
:10020000E55A94264010E55B9474E55A942A50060A
:10021000755E010202CB7559010202D3E5596402F1
:1002200060030202D31205368E5A8F5BE4FFFE1282
:10023000052BD3E55B9414E55A9402402BE55B94BF
:10024000FCE55A94055021E55F131313541F2461F4
:10025000F8C000E6FFE55F5407FEF874010880026D
:10026000C333D8FCF45F8033D3E55B9426E55A941E
:1002700006402FE55B940EE55A940A5025E55F137E
:100280001313541F2461F8C000E6FFE55F5407FE16
:10029000F87401088002C333D8FC4FD000F6055F24
:1002A0008006755F00755901C3E55F9420748094E2
:1002B000804020755F00E562F4B5610FE564F4B538
:1002C000630985615D85635C756001E4FF12054D1E
:1002D000755900D007D006D005D004D003D002D085
:0E02E00001D000D0D0D082D083D0F0D0E03258
:08053F001204DFE4FF02001EBC
:1004F6005389F0438901E4F58AF58CC28DC28C22BA
:0B052B00AD07AC068C8CAF058F8A2258
:09053600AF8CEFFEAD8AEDFF224F
:06054D00EF24FF928C2256
:1004DF0053890F438910758B18758DFCC28FD28E7F
:0704EF00D2ABD2AFC2BB2269
:1002EE001102140214031601140211020D020D0163
:1002FE000F01110211020F020D020F040004110270
:10030E00140214031601140211020D020D010F0145
:10031E00110211020F020F020D0400041204120446
:10032E00120216061404140211020F040004110224
:10033E00140214031601140211020D020D010F0115
:10034E00110211020F020F020D040004FF0D040D25
:10035E0004140414041604160414040004120412E3
:10036E0004110411040F040F040D040004140414EA
:10037E000412041204110411040F040004140414D2
:10038E000412041204110411040F0400040D040DD0
:10039E0004140414041604160414040004120412A3
:0E03AE0004110411040F040F040D040004FFD9
:10044800010A00010800010B00010900010E00016A
:100458000CFF010D00204A0F0000F844F8F3F95C86
:10046800F9B9FA15FA68FAB9FB05FB4CFB90FBD011
:10047800FC0CFC44FC7AFCADFCDDFD0AFD34FD5DA2
:10048800FD83FDA7FDC8FDE8FE06FE22FE3EFE57E1
:10049800FE6FFE85FE9BFEAFFEC2FED3FEE4FEF4B9
:0204A800FF0350
:10001E008F65120547C28E120506EF60F81205565F
:10002E008F0DEF644470EEB28EF565E565707B1250
:10003E000506EF60421205568F0D7E00EF64447088
:10004E000AB28E85650C7565FF805FEF64404E7059
:10005E000E1565C3748094805005756501804BE55F
:10006E000D644370120565D3E56594017480948028
:10007E004005E4F5658033E5089002EE93F50AF548
:10008E000E0508E5089375F07DA4FFAEF01200068C
:10009E000508C28E7F057E00120006D28EE50890FE
:1000AE0002EE93F47085F5088081E56564016003C6
:1000BE00020142120506EF60421205568F0D7E00B8
:1000CE00EF6444700AB28E85650C7565FF8065EF2E
:1000DE0064404E700E1565C374809480500575652E
:1000EE00018051E50D644370120565D3E5659401F9
:1000FE00748094804005E4F5658039D28EE50990D0
:10010E00035B93F50BF50E0509E5099375F07DA4D8
:10011E00FFAEF01200060509C28E7F057E001200AA
:10012E0006D28EE50990035B93F460030200B8F5E6
:10013E00090200B8120506EF7003020039120556C7
:10014E008F0D7E00EF64447005B28E850C65EF64F2
:10015E00404E70161565AF65FEC374809480500ACC
:10016E00BEFF07BFFF0475650122E50D6443600302
:10017E000200390565AF65D3EF9401748094805009
:10018E0003020039EFF4700274FF6003020039F5C8
:02019E006522D8
:03001B000204AB31
:1004AB00C0E0C0D075D000C000C006E50E25E0242A
:1004BB000FF8E6FE08E64E6012E50E25E0240FF875
:1004CB00E6FE08E6F58BEEF58DB295D006D000D0A2
:0404DB00D0D0E0326B
:030000000203BC3C
:0C03BC00787FE4F6D8FD7581650204032B
:1003C80002053FE493A3F8E493A34003F68001F207
:1003D80008DFF48029E493A3F85407240CC8C33336
:1003E800C4540F4420C8834004F456800146F6DF05
:1003F800E4800B0102040810204080900448E47E49
:10040800019360BCA3FF543F30E509541FFEE493F9
:10041800A360010ECF54C025E060A840B8E493A3C0
:10042800FAE493A3F8E493A3C8C582C8CAC583CAEB
:10043800F0A3C8C582C8CAC583CADFE9DEE780BEA3
:0104AA000051
:00000001FF
